{
    "contractName": "StateConnector",
    "abi": [
        {
            "inputs": [],
            "stateMutability": "nonpayable",
            "type": "constructor"
        },
        {
            "anonymous": false,
            "inputs": [
                {
                    "indexed": false,
                    "internalType": "bool",
                    "name": "prove",
                    "type": "bool"
                },
                {
                    "indexed": false,
                    "internalType": "uint64",
                    "name": "chainId",
                    "type": "uint64"
                },
                {
                    "indexed": false,
                    "internalType": "uint64",
                    "name": "ledger",
                    "type": "uint64"
                },
                {
                    "indexed": false,
                    "internalType": "bytes32",
                    "name": "txId",
                    "type": "bytes32"
                },
                {
                    "indexed": false,
                    "internalType": "bytes32",
                    "name": "paymentHash",
                    "type": "bytes32"
                }
            ],
            "name": "PaymentSet",
            "type": "event"
        },
        {
            "inputs": [
                {
                    "internalType": "uint64",
                    "name": "chainId",
                    "type": "uint64"
                },
                {
                    "internalType": "bytes32",
                    "name": "txId",
                    "type": "bytes32"
                },
                {
                    "internalType": "uint64",
                    "name": "utxo",
                    "type": "uint64"
                },
                {
                    "internalType": "bytes32",
                    "name": "destinationHash",
                    "type": "bytes32"
                },
                {
                    "internalType": "uint64",
                    "name": "amount",
                    "type": "uint64"
                },
                {
                    "internalType": "bytes32",
                    "name": "currencyHash",
                    "type": "bytes32"
                }
            ],
            "name": "getPaymentFinality",
            "outputs": [
                {
                    "internalType": "bool",
                    "name": "_proven",
                    "type": "bool"
                },
                {
                    "internalType": "uint64",
                    "name": "_indexValue",
                    "type": "uint64"
                }
            ],
            "stateMutability": "view",
            "type": "function"
        },
        {
            "inputs": [
                {
                    "internalType": "bool",
                    "name": "prove",
                    "type": "bool"
                },
                {
                    "internalType": "uint64",
                    "name": "chainId",
                    "type": "uint64"
                },
                {
                    "internalType": "uint64",
                    "name": "ledger",
                    "type": "uint64"
                },
                {
                    "internalType": "uint64",
                    "name": "utxo",
                    "type": "uint64"
                },
                {
                    "internalType": "bytes32",
                    "name": "txId",
                    "type": "bytes32"
                },
                {
                    "internalType": "bytes32",
                    "name": "paymentHash",
                    "type": "bytes32"
                }
            ],
            "name": "setPaymentFinality",
            "outputs": [
                {
                    "internalType": "uint256",
                    "name": "_instructions",
                    "type": "uint256"
                },
                {
                    "internalType": "bytes32",
                    "name": "_txId",
                    "type": "bytes32"
                },
                {
                    "internalType": "bytes32",
                    "name": "_paymentHash",
                    "type": "bytes32"
                }
            ],
            "stateMutability": "nonpayable",
            "type": "function"
        }
    ],
    "bytecode": "608060405234801561001057600080fd5b50610971806100206000396000f3fe608060405234801561001057600080fd5b50600436106100365760003560e01c80631bb166b11461003b578063d4ee422e146100a3575b600080fd5b610085600480360360c081101561005157600080fd5b5080351515906001600160401b03602082013581169160408101358216916060820135169060808101359060a0013561010e565b60408051938452602084019290925282820152519081900360600190f35b6100eb600480360360c08110156100b957600080fd5b506001600160401b03813581169160208101359160408201358116916060810135916080820135169060a0013561073b565b6040805192151583526001600160401b0390911660208301528051918290030190f35b600080600080876001600160401b03161161015e576040805162461bcd60e51b815260206004820152600b60248201526a06c6564676572203d3d20360ac1b604482015290519081900360640190fd5b836101a5576040805162461bcd60e51b815260206004820152601260248201527107061796d656e7448617368203d3d203078360741b604482015290519081900360640190fd5b846101e5576040805162461bcd60e51b815260206004820152600b60248201526a074784964203d3d203078360ac1b604482015290519081900360640190fd5b413314806101f6575041600160981b145b610247576040805162461bcd60e51b815260206004820152601c60248201527f696e76616c696420626c6f636b2e636f696e626173652076616c756500000000604482015290519081900360640190fd5b604080516f199a5b985b1a5cd95914185e5b595b9d60821b60208083019190915260c08b901b6001600160c01b03191660308301526038808301889052835180840390910181526058909201835281519181019190912060008181529182905291902054610100900460ff16156102fe576040805162461bcd60e51b81526020600482015260166024820152753830bcb6b2b73a1030b63932b0b23c90383937bb32b760511b604482015290519081900360640190fd5b604080518b151560f81b6020808301919091526001600160c01b031960c08d811b821660218501528c901b166029830152603180830189905283518084039091018152605190920183528151918101919091206000818152918290529181205490919060ff161561047c576000818152602081905260409020600101544210156103b95760405162461bcd60e51b815260040180806020018281038252603281526020018061090a6032913960400191505060405180910390fd5b6000818152602081905260409020600301548714610414576040805162461bcd60e51b81526020600482015260136024820152720d2dcecc2d8d2c840e0c2f2dacadce890c2e6d606b1b604482015290519081900360640190fd5b4262015180600080848152602001908152602001600020600101540111610477576040805162461bcd60e51b815260206004820152601260248201527172657665616c20697320746f6f206c61746560701b604482015290519081900360640190fd5b610499565b41331480159061048f575041600160981b145b1561049957600191505b41331480156104ac575041600160981b14155b156106d25760008181526020819052604090205460ff1661059b576040518060a00160405280600115158152602001600015158152602001601e420181526020018b6001600160401b031681526020018881525060008083815260200190815260200160002060008201518160000160006101000a81548160ff02191690831515021790555060208201518160000160016101000a81548160ff0219169083151502179055506040820151816001015560608201518160020160006101000a8154816001600160401b0302191690836001600160401b03160217905550608082015181600301559050506106d2565b6040518060a001604052806001151581526020018d151581526020014281526020018b6001600160401b031681526020018881525060008085815260200190815260200160002060008201518160000160006101000a81548160ff02191690831515021790555060208201518160000160016101000a81548160ff0219169083151502179055506040820151816001015560608201518160020160006101000a8154816001600160401b0302191690836001600160401b03160217905550608082015181600301559050507fc8633b6c4be27eb027ba7db40b20c77e7e472c7bd7a511b144f8fc583f50e4078c8c8c8b8b604051808615158152602001856001600160401b03168152602001846001600160401b031681526020018381526020018281526020019550505050505060405180910390a15b886001600160401b031660408b6001600160401b0316901b60808d6001600160401b0316901b60c08f610706576000610709565b60015b60ff16901b60e08661071c57600061071f565b60015b60ff16901b171717179c979b5095995095975050505050505050565b604080516001600160401b0386811660208084019190915283518084038201815283850185528051908201209186166060808501919091528451808503909101815260808401855280519082012060a084018a905260c08085019390935260e0840188905261010084015261012080840186905284518085039091018152610140840185528051908201206f199a5b985b1a5cd95914185e5b595b9d60821b610160850152918a901b6001600160c01b031916610170840152610178808401839052845180850390910181526101989093018452825192810192909220600081815292839052928220549192839260ff16610876576040805162461bcd60e51b81526020600482015260166024820152751c185e5b595b9d08191bd95cc81b9bdd08195e1a5cdd60521b604482015290519081900360640190fd5b60008181526020819052604090206003015482146108d1576040805162461bcd60e51b81526020600482015260136024820152720d2dcecc2d8d2c840e0c2f2dacadce890c2e6d606b1b604482015290519081900360640190fd5b6000908152602081905260409020805460029091015461010090910460ff169a6001600160401b03909116995097505050505050505056fe626c6f636b2e74696d657374616d70203c207061796d656e74735b70726f706f7365644c6f635d2e72657665616c54696d65a26469706673582212208afda42f9ff19393ef2896484c63df577fc4085f37375b2aa68c3f591d0a00f364736f6c63430007060033",
    "sourcePath": "/home/my-usern/flare/src/stateco/StateConnector.sol",
    "compiler": {
        "name": "solc",
        "version": "0.7.6+commit.7338295f"
    },
    "functionHashes": {
        "getPaymentFinality(uint64,bytes32,uint64,bytes32,uint64,bytes32)": "d4ee422e",
        "setPaymentFinality(bool,uint64,uint64,uint64,bytes32,bytes32)": "1bb166b1"
    },
    "gasEstimates": {
        "creation": {
            "codeDepositCost": "483400",
            "executionCost": "518",
            "totalCost": "483918"
        },
        "external": {
            "getPaymentFinality(uint64,bytes32,uint64,bytes32,uint64,bytes32)": "4676",
            "setPaymentFinality(bool,uint64,uint64,uint64,bytes32,bytes32)": "infinite"
        }
    }
}