{
    "contractName": "StateConnector",
    "abi": [
        {
            "inputs": [],
            "stateMutability": "nonpayable",
            "type": "constructor"
        },
        {
            "anonymous": false,
            "inputs": [
                {
                    "indexed": false,
                    "internalType": "bool",
                    "name": "prove",
                    "type": "bool"
                },
                {
                    "indexed": false,
                    "internalType": "uint64",
                    "name": "chainId",
                    "type": "uint64"
                },
                {
                    "indexed": false,
                    "internalType": "uint64",
                    "name": "ledger",
                    "type": "uint64"
                },
                {
                    "indexed": false,
                    "internalType": "string",
                    "name": "txId",
                    "type": "string"
                },
                {
                    "indexed": false,
                    "internalType": "bytes32",
                    "name": "paymentHash",
                    "type": "bytes32"
                }
            ],
            "name": "PaymentProven",
            "type": "event"
        },
        {
            "inputs": [
                {
                    "internalType": "uint64",
                    "name": "chainId",
                    "type": "uint64"
                },
                {
                    "internalType": "bytes32",
                    "name": "txIdHash",
                    "type": "bytes32"
                },
                {
                    "internalType": "bytes32",
                    "name": "destinationHash",
                    "type": "bytes32"
                },
                {
                    "internalType": "uint64",
                    "name": "amount",
                    "type": "uint64"
                },
                {
                    "internalType": "bytes32",
                    "name": "currencyHash",
                    "type": "bytes32"
                }
            ],
            "name": "getPaymentFinality",
            "outputs": [
                {
                    "internalType": "bool",
                    "name": "finality",
                    "type": "bool"
                },
                {
                    "internalType": "uint64",
                    "name": "ledger",
                    "type": "uint64"
                }
            ],
            "stateMutability": "view",
            "type": "function"
        },
        {
            "inputs": [
                {
                    "internalType": "bool",
                    "name": "prove",
                    "type": "bool"
                },
                {
                    "internalType": "uint64",
                    "name": "chainId",
                    "type": "uint64"
                },
                {
                    "internalType": "uint64",
                    "name": "ledger",
                    "type": "uint64"
                },
                {
                    "internalType": "bytes32",
                    "name": "paymentHash",
                    "type": "bytes32"
                },
                {
                    "internalType": "string",
                    "name": "txId",
                    "type": "string"
                }
            ],
            "name": "setPaymentFinality",
            "outputs": [
                {
                    "internalType": "uint256",
                    "name": "_instructions",
                    "type": "uint256"
                },
                {
                    "internalType": "bytes32",
                    "name": "_paymentHash",
                    "type": "bytes32"
                },
                {
                    "internalType": "string",
                    "name": "_txId",
                    "type": "string"
                }
            ],
            "stateMutability": "nonpayable",
            "type": "function"
        }
    ],
    "bytecode": "608060405234801561001057600080fd5b50610b5a806100206000396000f3fe608060405234801561001057600080fd5b50600436106100365760003560e01c8063772c223c1461003b578063e15f68191461018e575b600080fd5b610108600480360360a081101561005157600080fd5b81351515916001600160401b03602082013581169260408301359091169160608101359181019060a08101608082013564010000000081111561009357600080fd5b8201836020820111156100a557600080fd5b803590602001918460018302840111640100000000831117156100c757600080fd5b91908080601f0160208091040260200160405190810160405280939291908181526020018383808284376000920191909152509295506101f3945050505050565b6040518084815260200183815260200180602001828103825283818151815260200191508051906020019080838360005b83811015610151578181015183820152602001610139565b50505050905090810190601f16801561017e5780820380516001836020036101000a031916815260200191505b5094505050505060405180910390f35b6101d0600480360360a08110156101a457600080fd5b506001600160401b0381358116916020810135916040820135916060810135909116906080013561094c565b6040805192151583526001600160401b0390911660208301528051918290030190f35b60008060606000866001600160401b031611610244576040805162461bcd60e51b815260206004820152600b60248201526a06c6564676572203d3d20360ac1b604482015290519081900360640190fd5b8461028b576040805162461bcd60e51b815260206004820152601260248201527107061796d656e7448617368203d3d203078360741b604482015290519081900360640190fd5b60008451116102d8576040805162461bcd60e51b81526020600482015260146024820152737478496420697320656d70747920737472696e6760601b604482015290519081900360640190fd5b413314806102e9575041600160981b145b61033a576040805162461bcd60e51b815260206004820152601c60248201527f696e76616c696420626c6f636b2e636f696e626173652076616c756500000000604482015290519081900360640190fd5b6000846040516020018082805190602001908083835b6020831061036f5780518252601f199092019160209182019101610350565b6001836020036101000a038019825116818451168082178552505050505050905001915050604051602081830303815290604052805190602001209050600088878360405160200180806f199a5b985b1a5cd95914185e5b595b9d60821b815250601001846001600160401b031660c01b8152600801838152602001828152602001935050505060405160208183030381529060405280519060200120905060008082815260200190815260200160002060000160019054906101000a900460ff161561047c576040805162461bcd60e51b81526020600482015260166024820152753830bcb6b2b73a1030b63932b0b23c90383937bb32b760511b604482015290519081900360640190fd5b604080518b151560f81b6020808301919091526001600160c01b031960c08d811b821660218501528c901b166029830152603182018a9052605180830186905283518084039091018152607190920183528151918101919091206000818152918290529181205490919060ff16156106015760008181526020819052604090206001015442101561053e5760405162461bcd60e51b8152600401808060200182810382526032815260200180610af36032913960400191505060405180910390fd5b6000818152602081905260409020600301548914610599576040805162461bcd60e51b81526020600482015260136024820152720d2dcecc2d8d2c840e0c2f2dacadce890c2e6d606b1b604482015290519081900360640190fd5b42620151806000808481526020019081526020016000206001015401116105fc576040805162461bcd60e51b815260206004820152601260248201527172657665616c20697320746f6f206c61746560701b604482015290519081900360640190fd5b61061e565b413314801590610614575041600160981b145b1561061e57600191505b4133148015610631575041600160981b14155b156108b95760008181526020819052604090205460ff16610720576040518060a00160405280600115158152602001600015158152602001601e420181526020018b6001600160401b031681526020018a81525060008083815260200190815260200160002060008201518160000160006101000a81548160ff02191690831515021790555060208201518160000160016101000a81548160ff0219169083151502179055506040820151816001015560608201518160020160006101000a8154816001600160401b0302191690836001600160401b03160217905550608082015181600301559050506108b9565b6040518060a001604052806001151581526020018d151581526020014281526020018b6001600160401b031681526020018a81525060008085815260200190815260200160002060008201518160000160006101000a81548160ff02191690831515021790555060208201518160000160016101000a81548160ff0219169083151502179055506040820151816001015560608201518160020160006101000a8154816001600160401b0302191690836001600160401b03160217905550608082015181600301559050507f7c24adeeb746ec3e153b848f5842843536414677abdf7e697537671d86a9888b8c8c8c8b8d604051808615158152602001856001600160401b03168152602001846001600160401b0316815260200180602001838152602001828103825284818151815260200191508051906020019080838360005b8381101561087a578181015183820152602001610862565b50505050905090810190601f1680156108a75780820380516001836020036101000a031916815260200191505b50965050505050505060405180910390a15b896001600160401b03168b6001600160401b0316680100000000000000000268ffffffffffffffffff168d6108ef5760006108f2565b60015b60ff16600160801b0270ffffffffffffffffffffffffffffffffff168461091a57600061091d565b60015b60ff16600160c41b020101018989826001600160c81b0316925096509650965050505050955095509592505050565b604080516001600160401b0384166020808301919091528251808303820181528284018452805190820120606083018890526080830187905260a083015260c080830185905283518084038201815260e0840185528051908301206f199a5b985b1a5cd95914185e5b595b9d60821b6101008501529089901b6001600160c01b031916610110840152610118830181905261013880840189905284518085039091018152610158909301845282519282019290922060008181529182905292812054909283929160ff16610a60576040805162461bcd60e51b81526020600482015260166024820152751c185e5b595b9d08191bd95cc81b9bdd08195e1a5cdd60521b604482015290519081900360640190fd5b6000818152602081905260409020600301548214610abb576040805162461bcd60e51b81526020600482015260136024820152720d2dcecc2d8d2c840e0c2f2dacadce890c2e6d606b1b604482015290519081900360640190fd5b6000908152602081905260409020805460029091015461010090910460ff16996001600160401b039091169850965050505050505056fe626c6f636b2e74696d657374616d70203c207061796d656e74735b70726f706f7365644c6f635d2e72657665616c54696d65a26469706673582212205fcfcbf53293644259a34a74c1a57233bf8a23769548a66e27552c0bb5990ac564736f6c63430007060033",
    "sourcePath": "/home/my-usern/flare/src/stateco/StateConnector.sol",
    "compiler": {
        "name": "solc",
        "version": "0.7.6+commit.7338295f"
    },
    "functionHashes": {
        "getPaymentFinality(uint64,bytes32,bytes32,uint64,bytes32)": "e15f6819",
        "setPaymentFinality(bool,uint64,uint64,bytes32,string)": "772c223c"
    },
    "gasEstimates": {
        "creation": {
            "codeDepositCost": "581200",
            "executionCost": "613",
            "totalCost": "581813"
        },
        "external": {
            "getPaymentFinality(uint64,bytes32,bytes32,uint64,bytes32)": "4515",
            "setPaymentFinality(bool,uint64,uint64,bytes32,string)": "infinite"
        }
    }
}