{
    "contractName": "StateConnector",
    "abi": [
        {
            "inputs": [],
            "stateMutability": "nonpayable",
            "type": "constructor"
        },
        {
            "anonymous": false,
            "inputs": [
                {
                    "indexed": false,
                    "internalType": "uint64",
                    "name": "chainId",
                    "type": "uint64"
                },
                {
                    "indexed": false,
                    "internalType": "uint64",
                    "name": "ledger",
                    "type": "uint64"
                },
                {
                    "indexed": false,
                    "internalType": "bytes32",
                    "name": "txId",
                    "type": "bytes32"
                },
                {
                    "indexed": false,
                    "internalType": "uint16",
                    "name": "utxo",
                    "type": "uint16"
                },
                {
                    "indexed": false,
                    "internalType": "bytes32",
                    "name": "paymentHash",
                    "type": "bytes32"
                }
            ],
            "name": "PaymentSet",
            "type": "event"
        },
        {
            "inputs": [
                {
                    "internalType": "uint64",
                    "name": "chainId",
                    "type": "uint64"
                },
                {
                    "internalType": "uint64",
                    "name": "ledger",
                    "type": "uint64"
                },
                {
                    "internalType": "bytes32",
                    "name": "txIdHash",
                    "type": "bytes32"
                },
                {
                    "internalType": "uint16",
                    "name": "utxo",
                    "type": "uint16"
                },
                {
                    "internalType": "bytes32",
                    "name": "originHash",
                    "type": "bytes32"
                },
                {
                    "internalType": "bytes32",
                    "name": "destinationHash",
                    "type": "bytes32"
                },
                {
                    "internalType": "bytes32",
                    "name": "currencyHash",
                    "type": "bytes32"
                },
                {
                    "internalType": "uint64",
                    "name": "amount",
                    "type": "uint64"
                }
            ],
            "name": "getPaymentFinality",
            "outputs": [
                {
                    "internalType": "bool",
                    "name": "_proven",
                    "type": "bool"
                }
            ],
            "stateMutability": "view",
            "type": "function"
        },
        {
            "inputs": [
                {
                    "internalType": "uint64",
                    "name": "chainId",
                    "type": "uint64"
                },
                {
                    "internalType": "uint64",
                    "name": "ledger",
                    "type": "uint64"
                },
                {
                    "internalType": "bytes32",
                    "name": "txId",
                    "type": "bytes32"
                },
                {
                    "internalType": "uint16",
                    "name": "utxo",
                    "type": "uint16"
                },
                {
                    "internalType": "bytes32",
                    "name": "paymentHash",
                    "type": "bytes32"
                }
            ],
            "name": "setPaymentFinality",
            "outputs": [
                {
                    "internalType": "uint256",
                    "name": "_instructions",
                    "type": "uint256"
                },
                {
                    "internalType": "bytes32",
                    "name": "_txId",
                    "type": "bytes32"
                },
                {
                    "internalType": "bytes32",
                    "name": "_paymentHash",
                    "type": "bytes32"
                }
            ],
            "stateMutability": "nonpayable",
            "type": "function"
        }
    ],
    "bytecode": "608060405234801561001057600080fd5b50610e25806100206000396000f3fe608060405234801561001057600080fd5b50600436106100365760003560e01c8063b38f3d3e1461003b578063e2acb81f1461006e575b600080fd5b61004e610049366004610cf9565b610091565b604080519384526020840192909252908201526060015b60405180910390f35b61008161007c366004610d4e565b6108b9565b6040519015158152602001610065565b600080600080876001600160401b0316116100e15760405162461bcd60e51b815260206004820152600b60248201526a06c6564676572203d3d20360ac1b60448201526064015b60405180910390fd5b8561011c5760405162461bcd60e51b815260206004820152600b60248201526a074784964203d3d203078360ac1b60448201526064016100d8565b8361015e5760405162461bcd60e51b815260206004820152601260248201527107061796d656e7448617368203d3d203078360741b60448201526064016100d8565b4133148061016f575041600160981b145b6101bb5760405162461bcd60e51b815260206004820152601c60248201527f696e76616c696420626c6f636b2e636f696e626173652076616c75650000000060448201526064016100d8565b60006040516020016101fe906020808252601d908201527f466c6172655374617465436f6e6e6563746f725f46494e414c49534544000000604082015260600190565b60408051601f1981840301815282825280516020918201206001600160401b038d1691840191909152910160408051601f1981840301815282825280516020918201206001600160401b038d1691840191909152910160408051601f19818403018152828252805160209182012061ffff8c1691840191909152918b910160408051601f198184030181528282528051602091820120908301969096528101939093526060830191909152608082015260a081019190915260c0810186905260e00160408051808303601f190181529181528151602092830120600081815292839052912054909150610100900460ff16156103355760405162461bcd60e51b81526020600482015260166024820152753830bcb6b2b73a1030b63932b0b23c90383937bb32b760511b60448201526064016100d8565b600080604051602001610379906020808252601c908201527f466c6172655374617465436f6e6e6563746f725f50524f504f53454400000000604082015260600190565b60408051808303601f1901815282825280516020918201203382850152825180850383018152848401909352825192909101919091206001600160401b038e1660608401529091608001604051602081830303815290604052805190602001208c6040516020016103f991906001600160401b0391909116815260200190565b60408051601f19818403018152828252805160209182012061ffff8f1691840191909152918e910160408051601f198184030181528282528051602091820120908301979097528101949094526060840192909252608083015260a082015260c081019190915260e081018890526101000160408051601f19818403018152918152815160209283012060008181529283905291205490915060ff161561063d576000818152602081905260409020600101544210156105215760405162461bcd60e51b815260206004820152603e60248201527f626c6f636b2e74696d657374616d70203c207061796d656e74735b70726f706f60448201527f7365645061796d656e744c6f636174696f6e5d2e72657665616c54696d65000060648201526084016100d8565b6000818152602081905260409020600101544290610543906201518090610dc9565b116105855760405162461bcd60e51b815260206004820152601260248201527172657665616c20697320746f6f206c61746560701b60448201526064016100d8565b6000818152602081905260409020600201546001600160401b038b81169116146105e25760405162461bcd60e51b815260206004820152600e60248201526d34b73b30b634b2103632b233b2b960911b60448201526064016100d8565b60008181526020819052604090206003015487146106385760405162461bcd60e51b81526020600482015260136024820152720d2dcecc2d8d2c840e0c2f2dacadce890c2e6d606b1b60448201526064016100d8565b61065a565b413314801590610650575041600160981b145b1561065a57600191505b413314801561066d575041600160981b14155b1561086f5760008181526020819052604090205460ff16610733576040805160a08101825260018152600060208201529081016106ab601e42610dc9565b81526001600160401b038c811660208084019190915260409283018b90526000858152808252839020845181549286015161ffff1990931690151561ff0019161761010092151592909202919091178155918301516001830155606083015160028301805467ffffffffffffffff19169190921617905560809091015160039091015561086f565b6040518060a001604052806001151581526020016001151581526020014281526020018b6001600160401b031681526020018881525060008085815260200190815260200160002060008201518160000160006101000a81548160ff02191690831515021790555060208201518160000160016101000a81548160ff0219169083151502179055506040820151816001015560608201518160020160006101000a8154816001600160401b0302191690836001600160401b03160217905550608082015181600301559050507f2f93dda1ae4bd2cf0704fbf6e4725debf6abbc12b33411626fe1a571a59d502f8b8b8b8b8b6040516108669594939291906001600160401b039586168152939094166020840152604083019190915261ffff166060820152608081019190915260a00190565b60405180910390a15b8761ffff1660408b6001600160401b0316901b60808d6001600160401b0316901b60c08561089e5760006108a1565b60015b60ff16901b1717179b989a5095985050505050505050565b6000806040516020016108fd906020808252601f908201527f466c6172655374617465436f6e6e6563746f725f5041594d454e544841534800604082015260600190565b60408051601f1981840301815282825280516020918201206001600160401b038e1691840191909152910160408051601f1981840301815282825280516020918201206001600160401b038e1691840191909152910160408051601f19818403018152828252805160209182012061ffff8d1691840191909152918c9101604051602081830303815290604052805190602001208a8a8a8a6040516020016109b491906001600160401b0391909116815260200190565b60408051601f1981840301815282825280516020918201209083019a909a528101979097526060870195909552608086019390935260a085019190915260c084015260e0830152610100820152610120810191909152610140016040516020818303038152906040528051906020012090506000604051602001610a69906020808252601d908201527f466c6172655374617465436f6e6e6563746f725f46494e414c49534544000000604082015260600190565b60408051808303601f1901815282825280516020918201206001600160401b038f8116838601528351808603840181528585018552805190840120908f166060808701919091528451808703909101815260808601855280519084012061ffff8e1660a0808801919091528551808803909101815260c08701865280519085012060e087019390935261010086019190915261012085015261014084018d9052610160840152610180808401869052825180850390910181526101a0909301825282519281019290922060008181529283905291205490915060ff16610b8a5760405162461bcd60e51b81526020600482015260166024820152751c185e5b595b9d08191bd95cc81b9bdd08195e1a5cdd60521b60448201526064016100d8565b600081815260208190526040902054610100900460ff16610bed5760405162461bcd60e51b815260206004820152601960248201527f7061796d656e74206973206e6f74207965742070726f76656e0000000000000060448201526064016100d8565b6000818152602081905260409020600201546001600160401b038b8116911614610c505760405162461bcd60e51b8152602060048201526014602482015273696e76616c6964206c65646765722076616c756560601b60448201526064016100d8565b6000818152602081905260409020600301548214610ca65760405162461bcd60e51b81526020600482015260136024820152720d2dcecc2d8d2c840e0c2f2dacadce890c2e6d606b1b60448201526064016100d8565b600090815260208190526040902054610100900460ff169a9950505050505050505050565b80356001600160401b0381168114610ce257600080fd5b919050565b803561ffff81168114610ce257600080fd5b600080600080600060a08688031215610d1157600080fd5b610d1a86610ccb565b9450610d2860208701610ccb565b935060408601359250610d3d60608701610ce7565b949793965091946080013592915050565b600080600080600080600080610100898b031215610d6b57600080fd5b610d7489610ccb565b9750610d8260208a01610ccb565b965060408901359550610d9760608a01610ce7565b94506080890135935060a0890135925060c08901359150610dba60e08a01610ccb565b90509295985092959890939650565b60008219821115610dea57634e487b7160e01b600052601160045260246000fd5b50019056fea2646970667358221220405b17c3386ed1cf87aea53b5c5b05883a1ad93afc1ae62ddefef5e2e6b0370a64736f6c63430008090033",
    "sourcePath": "/home/my-usern/flare/src/stateco/StateConnector.sol",
    "compiler": {
        "name": "solc",
        "version": "0.8.9+commit.e5eed63a"
    },
    "functionHashes": {
        "getPaymentFinality(uint64,uint64,bytes32,uint16,bytes32,bytes32,bytes32,uint64)": "e2acb81f",
        "setPaymentFinality(uint64,uint64,bytes32,uint16,bytes32)": "b38f3d3e"
    },
    "gasEstimates": {
        "creation": {
            "codeDepositCost": "724200",
            "executionCost": "760",
            "totalCost": "724960"
        },
        "external": {
            "getPaymentFinality(uint64,uint64,bytes32,uint16,bytes32,bytes32,bytes32,uint64)": "infinite",
            "setPaymentFinality(uint64,uint64,bytes32,uint16,bytes32)": "infinite"
        }
    }
}