{
    "contractName": "TestFTSOBlockHeight",
    "abi": [
        {
            "inputs": [],
            "stateMutability": "nonpayable",
            "type": "constructor"
        },
        {
            "inputs": [
                {
                    "internalType": "uint64",
                    "name": "",
                    "type": "uint64"
                }
            ],
            "name": "chainHeight",
            "outputs": [
                {
                    "internalType": "uint64",
                    "name": "",
                    "type": "uint64"
                }
            ],
            "stateMutability": "view",
            "type": "function"
        },
        {
            "inputs": [
                {
                    "internalType": "uint64",
                    "name": "chainId",
                    "type": "uint64"
                }
            ],
            "name": "getBlockHeight",
            "outputs": [
                {
                    "internalType": "uint64",
                    "name": "ledgerNum",
                    "type": "uint64"
                }
            ],
            "stateMutability": "view",
            "type": "function"
        },
        {
            "inputs": [
                {
                    "internalType": "uint64",
                    "name": "chainId",
                    "type": "uint64"
                },
                {
                    "internalType": "uint64",
                    "name": "ledgerNum",
                    "type": "uint64"
                }
            ],
            "name": "setBlockHeight",
            "outputs": [],
            "stateMutability": "nonpayable",
            "type": "function"
        },
        {
            "inputs": [],
            "name": "testerAddress",
            "outputs": [
                {
                    "internalType": "address",
                    "name": "",
                    "type": "address"
                }
            ],
            "stateMutability": "view",
            "type": "function"
        }
    ],
    "bytecode": "608060405234801561001057600080fd5b50600080546001600160a01b0319163317905561029d806100326000396000f3fe608060405234801561001057600080fd5b506004361061004c5760003560e01c806335932ad41461005157806364e813a214610095578063cec9561b146100b9578063d6a6d5f1146100e0575b600080fd5b6100786004803603602081101561006757600080fd5b503567ffffffffffffffff16610111565b6040805167ffffffffffffffff9092168252519081900360200190f35b61009d610130565b604080516001600160a01b039092168252519081900360200190f35b610078600480360360208110156100cf57600080fd5b503567ffffffffffffffff1661013f565b61010f600480360360408110156100f657600080fd5b5067ffffffffffffffff8135811691602001351661015b565b005b67ffffffffffffffff9081166000908152600160205260409020541690565b6000546001600160a01b031681565b60016020526000908152604090205467ffffffffffffffff1681565b6000546001600160a01b031633146101ba576040805162461bcd60e51b815260206004820152601b60248201527f6d73672e73656e64657220213d20746573746572416464726573730000000000604482015290519081900360640190fd5b67ffffffffffffffff8083166000908152600160205260409020548116908216116102165760405162461bcd60e51b81526004018080602001828103825260218152602001806102476021913960400191505060405180910390fd5b67ffffffffffffffff9182166000908152600160205260409020805467ffffffffffffffff19169190921617905556fe6c65646765724e756d203c3d20636861696e4865696768745b636861696e49645da2646970667358221220ff3bf57a7632ff8860be4f83d87d5d5df926901aa52dddc750b3007e4a4a785a64736f6c63430007060033",
    "sourcePath": "/home/my-usern/flare/src/stateco/TestFTSOBlockHeight.sol",
    "compiler": {
        "name": "solc",
        "version": "0.7.6+commit.7338295f"
    },
    "functionHashes": {
        "chainHeight(uint64)": "cec9561b",
        "getBlockHeight(uint64)": "35932ad4",
        "setBlockHeight(uint64,uint64)": "d6a6d5f1",
        "testerAddress()": "64e813a2"
    },
    "gasEstimates": {
        "creation": {
            "codeDepositCost": "133800",
            "executionCost": "21012",
            "totalCost": "154812"
        },
        "external": {
            "chainHeight(uint64)": "1149",
            "getBlockHeight(uint64)": "1114",
            "setBlockHeight(uint64,uint64)": "infinite",
            "testerAddress()": "1037"
        }
    }
}